{"abi":[{"type":"constructor","inputs":[{"name":"_nombre","type":"string","internalType":"string"},{"name":"_curso","type":"string","internalType":"string"}],"stateMutability":"nonpayable"},{"name":"calificaciones","type":"function","inputs":[{"name":"","type":"address","internalType":"address"},{"name":"","type":"uint256","internalType":"uint256"}],"outputs":[{"name":"tipo","type":"uint8","internalType":"enum Asignatura.TipoNota"},{"name":"calificacion","type":"uint256","internalType":"uint256"}],"constant":true,"stateMutability":"view"},{"name":"curso","type":"function","inputs":[],"outputs":[{"name":"","type":"string","internalType":"string"}],"constant":true,"stateMutability":"view"},{"name":"datosAlumno","type":"function","inputs":[{"name":"","type":"address","internalType":"address"}],"outputs":[{"name":"nombre","type":"string","internalType":"string"},{"name":"email","type":"string","internalType":"string"}],"constant":true,"stateMutability":"view"},{"name":"evaluaciones","type":"function","inputs":[{"name":"","type":"uint256","internalType":"uint256"}],"outputs":[{"name":"nombre","type":"string","internalType":"string"},{"name":"fecha","type":"uint256","internalType":"uint256"},{"name":"puntos","type":"uint256","internalType":"uint256"}],"constant":true,"stateMutability":"view"},{"name":"matriculas","type":"function","inputs":[{"name":"","type":"uint256","internalType":"uint256"}],"outputs":[{"name":"","type":"address","internalType":"address"}],"constant":true,"stateMutability":"view"},{"name":"nombre","type":"function","inputs":[],"outputs":[{"name":"","type":"string","internalType":"string"}],"constant":true,"stateMutability":"view"},{"name":"profesor","type":"function","inputs":[],"outputs":[{"name":"","type":"address","internalType":"address"}],"constant":true,"stateMutability":"view"},{"type":"receive","payable":true,"stateMutability":"payable"},{"name":"evaluacionesLength","type":"function","inputs":[],"outputs":[{"name":"","type":"uint256","internalType":"uint256"}],"constant":true,"stateMutability":"view"},{"name":"creaEvaluacion","type":"function","inputs":[{"name":"_nombre","type":"string","internalType":"string"},{"name":"_fecha","type":"uint256","internalType":"uint256"},{"name":"_puntos","type":"uint256","internalType":"uint256"}],"outputs":[{"name":"","type":"uint256","internalType":"uint256"}],"stateMutability":"nonpayable"},{"name":"matriculasLength","type":"function","inputs":[],"outputs":[{"name":"","type":"uint256","internalType":"uint256"}],"constant":true,"stateMutability":"view"},{"name":"automatricula","type":"function","inputs":[{"name":"_nombre","type":"string","internalType":"string"},{"name":"_email","type":"string","internalType":"string"}],"outputs":[],"stateMutability":"nonpayable"},{"name":"quienSoy","type":"function","inputs":[],"outputs":[{"name":"_nombre","type":"string","internalType":"string"},{"name":"_email","type":"string","internalType":"string"}],"constant":true,"stateMutability":"view"},{"name":"califica","type":"function","inputs":[{"name":"alumno","type":"address","internalType":"address"},{"name":"evaluacion","type":"uint256","internalType":"uint256"},{"name":"tipo","type":"uint8","internalType":"enum Asignatura.TipoNota"},{"name":"calificacion","type":"uint256","internalType":"uint256"}],"outputs":[],"stateMutability":"nonpayable"},{"name":"miNota","type":"function","inputs":[{"name":"evaluacion","type":"uint256","internalType":"uint256"}],"outputs":[{"name":"tipo","type":"uint8","internalType":"enum Asignatura.TipoNota"},{"name":"calificacion","type":"uint256","internalType":"uint256"}],"constant":true,"stateMutability":"view"}],"devdoc":{"kind":"dev","methods":{"quienSoy()":{"returns":{"_email":" El email del alumno que invoca el metodo.","_nombre":"El nombre del alumno que invoca el metodo."}},"miNota(uint256)":{"params":{"evaluacion":"Indice de una evaluacion en el array de evaluaciones. "},"returns":{"tipo":"        El tipo de nota que ha sacado el alumno.","calificacion":"La calificacion que ha sacado el alumno."}},"matriculasLength()":{"returns":{"_0":"El numero de alumnos matriculados."}},"evaluacionesLength()":{"returns":{"_0":"El numero de evaluaciones creadas."}},"automatricula(string,string)":{"params":{"_email":"El email del alumno.","_nombre":"El nombre del alumno. "}},"creaEvaluacion(string,uint256,uint256)":{"params":{"_fecha":"La fecha de evaluacion (segundos desde el 1/1/1970).","_nombre":"El nombre de la evaluacion.","_puntos":"Los puntos que proporciona a la nota final. "},"returns":{"_0":"La posicion en el array evaluaciones,"}},"califica(address,uint256,uint8,uint256)":{"params":{"tipo":"Tipo de nota.","alumno":"La direccion del alumno.","evaluacion":"El indice de una evaluacion en el array evaluaciones.","calificacion":"La calificacion, multipilicada por 100 porque no hay decimales."}}},"version":1},"source":"// SPDX-License-Identifier: UNLICENSED\npragma solidity ^0.7.4;\n\n/**\n *  El contrato Asignatura que representa una asignatura de la carrera.\n * \n * Errores que hay que corregir:\n *  - Gestionar el limite de los puntos que aporta cada evaluacion.\n *  - Puede repetirse el nombre de una evaluacion, o de un alumno, ....?\n *  - Cambiar algunos uint a uint8 ??\n */\ncontract Asignatura {\n    \n    /**\n     * address del profesor que ha desplegado el contrato.\n     * El contrato lo despliega el profesor.\n     */\n    address public profesor;\n    \n    /// Nombre de la asignatura\n    string public nombre;\n    \n    // Curso academico\n    string public curso;\n    \n    \n    /**\n     * Datos de una evaluacion.\n     */\n    struct Evaluacion {\n        string nombre;\n        uint fecha;\n        uint puntos;\n    }\n    \n    \n    /// Evaluaciones de la asignatura.\n    Evaluacion[] public evaluaciones;\n\n\n    /// Datos de un alumno.\n    struct DatosAlumno {\n        string nombre;\n        string email;\n    }\n    \n    \n    /// Acceder a los datos de un alumno dada su direccion.\n    mapping (address => DatosAlumno) public datosAlumno;\n    \n    \n    // Array con las direcciones de los alumnos matriculados.\n    address[] public matriculas;\n    \n    \n    /// Tipos de notas: no presentado, nota entre 0 y 10, y matricuka de honor.\n    enum TipoNota { NP, Normal, MH }\n    \n    /**\n     * Datos de una nota.\n     * La calificacion esta multipilicada por 100 porque no hay decimales.\n     */\n    struct Nota {\n        TipoNota tipo;\n        uint calificacion;\n    }\n    \n    \n    // Dada la direccion de un alumno, y el indice de la evaluacion, devuelve\n    // la nota del alumno.\n    mapping (address => mapping (uint => Nota)) public calificaciones;\n    \n    \n    /**\n     * Constructor.\n     * \n     * @param _nombre Nombre de la asignatura.\n     * @param _curso  Curso academico.\n     */\n    constructor(string memory _nombre, string memory _curso) {\n        \n        bytes memory bn = bytes(_nombre);\n        require(bn.length != 0, \"El nombre de la asignatura no puede ser vacio\");\n       \n        bytes memory bc = bytes(_curso);\n        require(bc.length != 0, \"El curso academico de la asignatura no puede ser vacio\");\n      \n        profesor = msg.sender;\n        nombre = _nombre;\n        curso = _curso;\n    }\n    \n    \n    /**\n     * El numero de evaluaciones creadas.\n     *\n     * @return El numero de evaluaciones creadas.\n     */\n    function evaluacionesLength() public view returns(uint) {\n        return evaluaciones.length;\n    }\n    \n    \n    /**\n     * Crear una prueba de evaluacion de la asignatura. Por ejemplo, el primer parcial, o la practica 3. \n     *\n     * Las evaluaciones se meteran en el array evaluaciones, y nos referiremos a ellas por su posicion en el array.\n     * \n     * @param _nombre El nombre de la evaluacion.\n     * @param _fecha  La fecha de evaluacion (segundos desde el 1/1/1970).\n     * @param _puntos Los puntos que proporciona a la nota final.\n     * \n     * @return La posicion en el array evaluaciones,\n     */\n    function creaEvaluacion(string memory _nombre, uint _fecha, uint _puntos) soloProfesor public returns (uint) {\n        \n        bytes memory bn = bytes(_nombre);\n        require(bn.length != 0, \"El nombre de la evaluacion no puede ser vacio\");\n        \n        evaluaciones.push(Evaluacion(_nombre, _fecha, _puntos));\n        return evaluaciones.length - 1;\n    }\n    \n \n     /**\n     * El numero de alumnos matriculados.\n     *\n     * @return El numero de alumnos matriculados.\n     */\n    function matriculasLength() public view returns(uint) {\n        return matriculas.length;\n    }\n    \n    \n    /**\n     * Los alumnos pueden automatricularse con el metodo automatricula.\n     * \n     * Impedir que se pueda meter un nombre vacio.\n     *\n     * @param _nombre El nombre del alumno. \n     * @param _email  El email del alumno.\n     */\n    function automatricula(string memory _nombre, string memory _email) noMatriculados public {\n        \n        bytes memory b = bytes(_nombre);\n        require(b.length != 0, \"El nombre no puede ser vacio\");\n        \n        DatosAlumno memory datos = DatosAlumno(_nombre, _email);\n        \n        datosAlumno[msg.sender] = datos;\n        \n        matriculas.push(msg.sender);\n        \n    }\n    \n    \n    /**\n     * Permite a un alumno obtener sus propios datos.\n     * \n     * @return _nombre El nombre del alumno que invoca el metodo.\n     * @return _email  El email del alumno que invoca el metodo.\n     */\n    function quienSoy() soloMatriculados public view returns (string memory _nombre, string memory _email) {\n        DatosAlumno memory datos = datosAlumno[msg.sender];\n        _nombre = datos.nombre;\n        _email = datos.email;\n    }\n    \n    \n    /**\n     * Poner la nota de un alumno en una evaluacion.\n     * \n     * @param alumno        La direccion del alumno.\n     * @param evaluacion    El indice de una evaluacion en el array evaluaciones.\n     * @param tipo          Tipo de nota.\n     * @param calificacion  La calificacion, multipilicada por 100 porque no hay decimales.\n     */\n    function califica(address alumno, uint evaluacion, TipoNota tipo, uint calificacion) soloProfesor public {\n        \n        require(estaMatriculado(alumno), \"Solo se pueden calificar a un alumno matriculado.\");\n        require(evaluacion < evaluaciones.length, \"No se puede calificar una evaluacion que no existe.\");\n        require(calificacion <= 100, \"No se puede calificar con una nota superior a la maxima permitida.\");\n\n        Nota memory nota = Nota(tipo, calificacion);\n        \n        calificaciones[alumno][evaluacion] = nota;\n    }\n    \n    \n    /**\n     * Consulta si una direccion pertenece a un alumno matriculado.\n     * \n     * @param alumno La direccion de un alumno.\n     * \n     * @return true si es una alumno matriculado.\n     */\n    function estaMatriculado(address alumno) private view returns (bool) {\n      \n        string memory _nombre = datosAlumno[alumno].nombre;\n        \n        bytes memory b = bytes(_nombre);\n        \n        return b.length != 0;\n    } \n   \n   \n    /**\n     * Devuelve el tipo de nota y la calificacion que ha sacado el alumno que invoca el metodo en la evaluacion pasada como parametro.\n     * \n     * @param evaluacion Indice de una evaluacion en el array de evaluaciones.\n     * \n     * @return tipo         El tipo de nota que ha sacado el alumno.\n     * @return calificacion La calificacion que ha sacado el alumno.\n     */ \n    function miNota(uint evaluacion) soloMatriculados public view returns (TipoNota tipo, uint calificacion) {\n        \n        require(evaluacion < evaluaciones.length, \"El indice de la evaluacion no existe.\");\n        \n        Nota memory nota = calificaciones[msg.sender][evaluacion];\n        \n        tipo = nota.tipo;\n        calificacion = nota.calificacion;\n    }\n    \n    \n    /**\n     * Modificador para que una funcion solo la pueda ejecutar el profesor.\n     * \n     * Se usa en creaEvaluacion y en califica.\n     */\n    modifier soloProfesor() {\n        \n        require(msg.sender == profesor, \"Solo permitido al profesor\");\n        _;\n    }\n    \n    \n    /**\n     * Modificador para que una funcion solo la pueda ejecutar un alumno matriculado.\n     */\n    modifier soloMatriculados() {\n        \n        require(estaMatriculado(msg.sender), \"Solo permitido a alumnos matriculados\");\n        _;\n    }\n    \n    \n    /**\n     * Modificador para que una funcion solo la pueda ejecutar un alumno no matriculado aun.\n     */\n    modifier noMatriculados() {\n        \n        require(!estaMatriculado(msg.sender), \"Solo permitido a alumnos no matriculados\");\n        _;\n    }\n    \n    \n    /**\n     * No se permite la recepcion de dinero.\n     */\n    receive() external payable {\n        revert(\"No se permite la recepcion de dinero.\");\n    }\n}\n","userdoc":{"kind":"user","notice":"El contrato Asignatura que representa una asignatura de la carrera.  Errores que hay que corregir:  - Gestionar el limite de los puntos que aporta cada evaluacion.  - Puede repetirse el nombre de una evaluacion, o de un alumno, ....?  - Cambiar algunos uint a uint8 ??","methods":{"nombre()":{"notice":"Nombre de la asignatura"},"profesor()":{"notice":"address del profesor que ha desplegado el contrato. El contrato lo despliega el profesor."},"quienSoy()":{"notice":"Permite a un alumno obtener sus propios datos. "},"miNota(uint256)":{"notice":"Devuelve el tipo de nota y la calificacion que ha sacado el alumno que invoca el metodo en la evaluacion pasada como parametro. "},"matriculasLength()":{"notice":"El numero de alumnos matriculados."},"datosAlumno(address)":{"notice":"Acceder a los datos de un alumno dada su direccion."},"evaluacionesLength()":{"notice":"El numero de evaluaciones creadas."},"evaluaciones(uint256)":{"notice":"Evaluaciones de la asignatura."},"automatricula(string,string)":{"notice":"Los alumnos pueden automatricularse con el metodo automatricula.  Impedir que se pueda meter un nombre vacio."},"creaEvaluacion(string,uint256,uint256)":{"notice":"Crear una prueba de evaluacion de la asignatura. Por ejemplo, el primer parcial, o la practica 3.  Las evaluaciones se meteran en el array evaluaciones, y nos referiremos a ellas por su posicion en el array. "},"califica(address,uint256,uint8,uint256)":{"notice":"Poner la nota de un alumno en una evaluacion. "}},"version":1},"bytecode":"0x60806040523480156200001157600080fd5b5060405162001f4238038062001f42833981810160405260408110156200003757600080fd5b81019080805160405193929190846401000000008211156200005857600080fd5b838201915060208201858111156200006f57600080fd5b82518660018202830111640100000000821117156200008d57600080fd5b8083526020830192505050908051906020019080838360005b83811015620000c3578082015181840152602081019050620000a6565b50505050905090810190601f168015620000f15780820380516001836020036101000a031916815260200191505b50604052602001805160405193929190846401000000008211156200011557600080fd5b838201915060208201858111156200012c57600080fd5b82518660018202830111640100000000821117156200014a57600080fd5b8083526020830192505050908051906020019080838360005b838110156200018057808201518184015260208101905062000163565b50505050905090810190601f168015620001ae5780820380516001836020036101000a031916815260200191505b50604052505050606082905060008151141562000217576040517f08c379a000000000000000000000000000000000000000000000000000000000815260040180806020018281038252602d81526020018062001f15602d913960400191505060405180910390fd5b606082905060008151141562000279576040517f08c379a000000000000000000000000000000000000000000000000000000000815260040180806020018281038252603681526020018062001edf6036913960400191505060405180910390fd5b336000806101000a81548173ffffffffffffffffffffffffffffffffffffffff021916908373ffffffffffffffffffffffffffffffffffffffff1602179055508360019080519060200190620002d1929190620002f5565b508260029080519060200190620002ea929190620002f5565b5050505050620003ab565b828054600181600116156101000203166002900490600052602060002090601f0160209004810192826200032d576000855562000379565b82601f106200034857805160ff191683800117855562000379565b8280016001018555821562000379579182015b82811115620003785782518255916020019190600101906200035b565b5b5090506200038891906200038c565b5090565b5b80821115620003a75760008160009055506001016200038d565b5090565b611b2480620003bb6000396000f3fe6080604052600436106100e15760003560e01c80639e1d8f4b1161007f578063d017da1f11610059578063d017da1f146107cd578063d27c3f3c146108bd578063deafcc411461091e578063df096576146109ae57610137565b80639e1d8f4b146106ad578063bc7b35b2146106d8578063c79181391461076857610137565b8063488cf4f5116100bb578063488cf4f5146102f1578063537668831461031c57806361d4c6ad146104185780636bf8aad61461057757610137565b806330322c9b1461013c57806342a6dde2146101ae57806344f7a8cc1461022f57610137565b36610137576040517f08c379a0000000000000000000000000000000000000000000000000000000008152600401808060200182810382526025815260200180611a396025913960400191505060405180910390fd5b600080fd5b34801561014857600080fd5b506101ac6004803603608081101561015f57600080fd5b81019080803573ffffffffffffffffffffffffffffffffffffffff16906020019092919080359060200190929190803560ff169060200190929190803590602001909291905050506109ef565b005b3480156101ba57600080fd5b50610207600480360360408110156101d157600080fd5b81019080803573ffffffffffffffffffffffffffffffffffffffff16906020019092919080359060200190929190505050610c7d565b6040518083600281111561021757fe5b81526020018281526020019250505060405180910390f35b34801561023b57600080fd5b506102686004803603602081101561025257600080fd5b8101908080359060200190929190505050610cbb565b6040518080602001848152602001838152602001828103825285818151815260200191508051906020019080838360005b838110156102b4578082015181840152602081019050610299565b50505050905090810190601f1680156102e15780820380516001836020036101000a031916815260200191505b5094505050505060405180910390f35b3480156102fd57600080fd5b50610306610d8d565b6040518082815260200191505060405180910390f35b34801561032857600080fd5b50610331610d9a565b604051808060200180602001838103835285818151815260200191508051906020019080838360005b8381101561037557808201518184015260208101905061035a565b50505050905090810190601f1680156103a25780820380516001836020036101000a031916815260200191505b50838103825284818151815260200191508051906020019080838360005b838110156103db5780820151818401526020810190506103c0565b50505050905090810190601f1680156104085780820380516001836020036101000a031916815260200191505b5094505050505060405180910390f35b34801561042457600080fd5b506105756004803603604081101561043b57600080fd5b810190808035906020019064010000000081111561045857600080fd5b82018360208201111561046a57600080fd5b8035906020019184600183028401116401000000008311171561048c57600080fd5b91908080601f016020809104026020016040519081016040528093929190818152602001838380828437600081840152601f19601f820116905080830192505050505050509192919290803590602001906401000000008111156104ef57600080fd5b82018360208201111561050157600080fd5b8035906020019184600183028401116401000000008311171561052357600080fd5b91908080601f016020809104026020016040519081016040528093929190818152602001838380828437600081840152601f19601f820116905080830192505050505050509192919290505050610fa6565b005b34801561058357600080fd5b506105c66004803603602081101561059a57600080fd5b81019080803573ffffffffffffffffffffffffffffffffffffffff169060200190929190505050611187565b604051808060200180602001838103835285818151815260200191508051906020019080838360005b8381101561060a5780820151818401526020810190506105ef565b50505050905090810190601f1680156106375780820380516001836020036101000a031916815260200191505b50838103825284818151815260200191508051906020019080838360005b83811015610670578082015181840152602081019050610655565b50505050905090810190601f16801561069d5780820380516001836020036101000a031916815260200191505b5094505050505060405180910390f35b3480156106b957600080fd5b506106c26112db565b6040518082815260200191505060405180910390f35b3480156106e457600080fd5b506106ed6112e8565b6040518080602001828103825283818151815260200191508051906020019080838360005b8381101561072d578082015181840152602081019050610712565b50505050905090810190601f16801561075a5780820380516001836020036101000a031916815260200191505b509250505060405180910390f35b34801561077457600080fd5b506107a16004803603602081101561078b57600080fd5b8101908080359060200190929190505050611386565b604051808273ffffffffffffffffffffffffffffffffffffffff16815260200191505060405180910390f35b3480156107d957600080fd5b506108a7600480360360608110156107f057600080fd5b810190808035906020019064010000000081111561080d57600080fd5b82018360208201111561081f57600080fd5b8035906020019184600183028401116401000000008311171561084157600080fd5b91908080601f016020809104026020016040519081016040528093929190818152602001838380828437600081840152601f19601f82011690508083019250505050505050919291929080359060200190929190803590602001909291905050506113c5565b6040518082815260200191505060405180910390f35b3480156108c957600080fd5b506108f6600480360360208110156108e057600080fd5b8101908080359060200190929190505050611575565b6040518083600281111561090657fe5b81526020018281526020019250505060405180910390f35b34801561092a57600080fd5b506109336116e3565b6040518080602001828103825283818151815260200191508051906020019080838360005b83811015610973578082015181840152602081019050610958565b50505050905090810190601f1680156109a05780820380516001836020036101000a031916815260200191505b509250505060405180910390f35b3480156109ba57600080fd5b506109c3611781565b604051808273ffffffffffffffffffffffffffffffffffffffff16815260200191505060405180910390f35b60008054906101000a900473ffffffffffffffffffffffffffffffffffffffff1673ffffffffffffffffffffffffffffffffffffffff163373ffffffffffffffffffffffffffffffffffffffff1614610ab0576040517f08c379a000000000000000000000000000000000000000000000000000000000815260040180806020018281038252601a8152602001807f536f6c6f207065726d697469646f20616c2070726f6665736f7200000000000081525060200191505060405180910390fd5b610ab9846117a5565b610b0e576040517f08c379a0000000000000000000000000000000000000000000000000000000008152600401808060200182810382526031815260200180611a916031913960400191505060405180910390fd5b6003805490508310610b6b576040517f08c379a0000000000000000000000000000000000000000000000000000000008152600401808060200182810382526033815260200180611a5e6033913960400191505060405180910390fd5b6064811115610bc5576040517f08c379a00000000000000000000000000000000000000000000000000000000081526004018080602001828103825260428152602001806119d26042913960600191505060405180910390fd5b610bcd61189a565b6040518060400160405280846002811115610be457fe5b815260200183815250905080600660008773ffffffffffffffffffffffffffffffffffffffff1673ffffffffffffffffffffffffffffffffffffffff168152602001908152602001600020600086815260200190815260200160002060008201518160000160006101000a81548160ff02191690836002811115610c6457fe5b0217905550602082015181600101559050505050505050565b6006602052816000526040600020602052806000526040600020600091509150508060000160009054906101000a900460ff16908060010154905082565b60038181548110610ccb57600080fd5b9060005260206000209060030201600091509050806000018054600181600116156101000203166002900480601f016020809104026020016040519081016040528092919081815260200182805460018160011615610100020316600290048015610d775780601f10610d4c57610100808354040283529160200191610d77565b820191906000526020600020905b815481529060010190602001808311610d5a57829003601f168201915b5050505050908060010154908060020154905083565b6000600380549050905090565b606080610da6336117a5565b610dfb576040517f08c379a00000000000000000000000000000000000000000000000000000000081526004018080602001828103825260258152602001806119ad6025913960400191505060405180910390fd5b610e036118bf565b600460003373ffffffffffffffffffffffffffffffffffffffff1673ffffffffffffffffffffffffffffffffffffffff168152602001908152602001600020604051806040016040529081600082018054600181600116156101000203166002900480601f016020809104026020016040519081016040528092919081815260200182805460018160011615610100020316600290048015610ee65780601f10610ebb57610100808354040283529160200191610ee6565b820191906000526020600020905b815481529060010190602001808311610ec957829003601f168201915b50505050508152602001600182018054600181600116156101000203166002900480601f016020809104026020016040519081016040528092919081815260200182805460018160011615610100020316600290048015610f885780601f10610f5d57610100808354040283529160200191610f88565b820191906000526020600020905b815481529060010190602001808311610f6b57829003601f168201915b50505050508152505090508060000151925080602001519150509091565b610faf336117a5565b15611005576040517f08c379a00000000000000000000000000000000000000000000000000000000081526004018080602001828103825260288152602001806119856028913960400191505060405180910390fd5b6060829050600081511415611082576040517f08c379a000000000000000000000000000000000000000000000000000000000815260040180806020018281038252601c8152602001807f456c206e6f6d627265206e6f2070756564652073657220766163696f0000000081525060200191505060405180910390fd5b61108a6118bf565b604051806040016040528085815260200184815250905080600460003373ffffffffffffffffffffffffffffffffffffffff1673ffffffffffffffffffffffffffffffffffffffff16815260200190815260200160002060008201518160000190805190602001906110fd9291906118d9565b50602082015181600101908051906020019061111a9291906118d9565b509050506005339080600181540180825580915050600190039060005260206000200160009091909190916101000a81548173ffffffffffffffffffffffffffffffffffffffff021916908373ffffffffffffffffffffffffffffffffffffffff16021790555050505050565b6004602052806000526040600020600091509050806000018054600181600116156101000203166002900480601f0160208091040260200160405190810160405280929190818152602001828054600181600116156101000203166002900480156112335780601f1061120857610100808354040283529160200191611233565b820191906000526020600020905b81548152906001019060200180831161121657829003601f168201915b505050505090806001018054600181600116156101000203166002900480601f0160208091040260200160405190810160405280929190818152602001828054600181600116156101000203166002900480156112d15780601f106112a6576101008083540402835291602001916112d1565b820191906000526020600020905b8154815290600101906020018083116112b457829003601f168201915b5050505050905082565b6000600580549050905090565b60018054600181600116156101000203166002900480601f01602080910402602001604051908101604052809291908181526020018280546001816001161561010002031660029004801561137e5780601f106113535761010080835404028352916020019161137e565b820191906000526020600020905b81548152906001019060200180831161136157829003601f168201915b505050505081565b6005818154811061139657600080fd5b906000526020600020016000915054906101000a900473ffffffffffffffffffffffffffffffffffffffff1681565b60008060009054906101000a900473ffffffffffffffffffffffffffffffffffffffff1673ffffffffffffffffffffffffffffffffffffffff163373ffffffffffffffffffffffffffffffffffffffff1614611489576040517f08c379a000000000000000000000000000000000000000000000000000000000815260040180806020018281038252601a8152602001807f536f6c6f207065726d697469646f20616c2070726f6665736f7200000000000081525060200191505060405180910390fd5b60608490506000815114156114e9576040517f08c379a000000000000000000000000000000000000000000000000000000000815260040180806020018281038252602d815260200180611ac2602d913960400191505060405180910390fd5b60036040518060600160405280878152602001868152602001858152509080600181540180825580915050600190039060005260206000209060030201600090919091909150600082015181600001908051906020019061154b9291906118d9565b50602082015181600101556040820151816002015550506001600380549050039150509392505050565b600080611581336117a5565b6115d6576040517f08c379a00000000000000000000000000000000000000000000000000000000081526004018080602001828103825260258152602001806119ad6025913960400191505060405180910390fd5b6003805490508310611633576040517f08c379a0000000000000000000000000000000000000000000000000000000008152600401808060200182810382526025815260200180611a146025913960400191505060405180910390fd5b61163b61189a565b600660003373ffffffffffffffffffffffffffffffffffffffff1673ffffffffffffffffffffffffffffffffffffffff16815260200190815260200160002060008581526020019081526020016000206040518060400160405290816000820160009054906101000a900460ff1660028111156116b457fe5b60028111156116bf57fe5b81526020016001820154815250509050806000015192508060200151915050915091565b60028054600181600116156101000203166002900480601f0160208091040260200160405190810160405280929190818152602001828054600181600116156101000203166002900480156117795780601f1061174e57610100808354040283529160200191611779565b820191906000526020600020905b81548152906001019060200180831161175c57829003601f168201915b505050505081565b60008054906101000a900473ffffffffffffffffffffffffffffffffffffffff1681565b60006060600460008473ffffffffffffffffffffffffffffffffffffffff1673ffffffffffffffffffffffffffffffffffffffff1681526020019081526020016000206000018054600181600116156101000203166002900480601f01602080910402602001604051908101604052809291908181526020018280546001816001161561010002031660029004801561187f5780601f106118545761010080835404028352916020019161187f565b820191906000526020600020905b81548152906001019060200180831161186257829003601f168201915b50505050509050606081905060008151141592505050919050565b6040518060400160405280600060028111156118b257fe5b8152602001600081525090565b604051806040016040528060608152602001606081525090565b828054600181600116156101000203166002900490600052602060002090601f01602090048101928261190f5760008555611956565b82601f1061192857805160ff1916838001178555611956565b82800160010185558215611956579182015b8281111561195557825182559160200191906001019061193a565b5b5090506119639190611967565b5090565b5b80821115611980576000816000905550600101611968565b509056fe536f6c6f207065726d697469646f206120616c756d6e6f73206e6f206d6174726963756c61646f73536f6c6f207065726d697469646f206120616c756d6e6f73206d6174726963756c61646f734e6f2073652070756564652063616c69666963617220636f6e20756e61206e6f7461207375706572696f722061206c61206d6178696d61207065726d69746964612e456c20696e64696365206465206c61206576616c756163696f6e206e6f206578697374652e4e6f207365207065726d697465206c6120726563657063696f6e2064652064696e65726f2e4e6f2073652070756564652063616c69666963617220756e61206576616c756163696f6e20717565206e6f206578697374652e536f6c6f2073652070756564656e2063616c696669636172206120756e20616c756d6e6f206d6174726963756c61646f2e456c206e6f6d627265206465206c61206576616c756163696f6e206e6f2070756564652073657220766163696fa2646970667358221220ab0c615eab1adce1b6ba456a8f58db9f6e907c7c3e087bd4cf46d6b6dc95596864736f6c63430007040033456c20637572736f2061636164656d69636f206465206c6120617369676e6174757261206e6f2070756564652073657220766163696f456c206e6f6d627265206465206c6120617369676e6174757261206e6f2070756564652073657220766163696f","compiler":{"name":"solc","version":"0.7.4+commit.3f05b770.Emscripten.clang"},"updatedAt":"2021-01-20T20:21:08.547Z","sourcePath":"/home/builduser/teams_workingdir/repo/contracts/Asignatura.sol","networkType":"ethereum","contractName":"Asignatura","schemaVersion":"3.3.3","immutableReferences":{}}